{
  "contractName": "Docify",
  "abi": [
    {
      "anonymous": false,
      "inputs": [
        {
          "indexed": true,
          "internalType": "uint256",
          "name": "id",
          "type": "uint256"
        },
        {
          "indexed": true,
          "internalType": "address",
          "name": "signer",
          "type": "address"
        },
        {
          "indexed": false,
          "internalType": "bytes32",
          "name": "hashVerify",
          "type": "bytes32"
        }
      ],
      "name": "RecordAddedSigner",
      "type": "event"
    },
    {
      "anonymous": false,
      "inputs": [
        {
          "indexed": true,
          "internalType": "uint256",
          "name": "id",
          "type": "uint256"
        },
        {
          "indexed": true,
          "internalType": "address",
          "name": "owner",
          "type": "address"
        },
        {
          "indexed": false,
          "internalType": "bytes32",
          "name": "hashVerify",
          "type": "bytes32"
        }
      ],
      "name": "RecordEvent",
      "type": "event"
    },
    {
      "constant": false,
      "inputs": [
        {
          "internalType": "string",
          "name": "_CID",
          "type": "string"
        }
      ],
      "name": "issue",
      "outputs": [],
      "payable": false,
      "stateMutability": "nonpayable",
      "type": "function"
    },
    {
      "constant": false,
      "inputs": [
        {
          "internalType": "uint256",
          "name": "_recordID",
          "type": "uint256"
        },
        {
          "internalType": "address",
          "name": "_signer",
          "type": "address"
        }
      ],
      "name": "addSigner",
      "outputs": [],
      "payable": false,
      "stateMutability": "nonpayable",
      "type": "function"
    }
  ],
  "bytecode": "0x6080604052600060015534801561001557600080fd5b50610768806100256000396000f3fe608060405234801561001057600080fd5b50600436106100365760003560e01c806315a098251461003b5780633cad9b0d14610089575b600080fd5b6100876004803603604081101561005157600080fd5b8101908080359060200190929190803573ffffffffffffffffffffffffffffffffffffffff169060200190929190505050610144565b005b6101426004803603602081101561009f57600080fd5b81019080803590602001906401000000008111156100bc57600080fd5b8201836020820111156100ce57600080fd5b803590602001918460018302840111640100000000831117156100f057600080fd5b91908080601f016020809104026020016040519081016040528093929190818152602001838380828437600081840152601f19601f8201169050808301925050505050505091929192905050506103e4565b005b80600073ffffffffffffffffffffffffffffffffffffffff168173ffffffffffffffffffffffffffffffffffffffff1614156101e8576040517f08c379a00000000000000000000000000000000000000000000000000000000081526004018080602001828103825260118152602001807f4e6f742076616c6964206164647265737300000000000000000000000000000081525060200191505060405180910390fd5b6101f061064d565b6000808581526020019081526020016000206040518060800160405290816000820154815260200160018201548152602001600282018054600181600116156101000203166002900480601f0160208091040260200160405190810160405280929190818152602001828054600181600116156101000203166002900480156102ba5780601f1061028f576101008083540402835291602001916102ba565b820191906000526020600020905b81548152906001019060200180831161029d57829003601f168201915b505050505081526020016003820160009054906101000a900473ffffffffffffffffffffffffffffffffffffffff1673ffffffffffffffffffffffffffffffffffffffff1673ffffffffffffffffffffffffffffffffffffffff1681525050905080600001518342604051602001808481526020018373ffffffffffffffffffffffffffffffffffffffff1673ffffffffffffffffffffffffffffffffffffffff1681526020018281526020019350505050604051602081830303815290604052805190602001208160000181815250508273ffffffffffffffffffffffffffffffffffffffff16847f27c6e224d100e298e21618da4167715210e64c69f152403f472c893dd88575be83600001516040518082815260200191505060405180910390a350505050565b6103ec61064d565b81816040018190525033816060019073ffffffffffffffffffffffffffffffffffffffff16908173ffffffffffffffffffffffffffffffffffffffff168152505060015481602001818152505030338260400151836020015142604051602001808673ffffffffffffffffffffffffffffffffffffffff1673ffffffffffffffffffffffffffffffffffffffff1681526020018573ffffffffffffffffffffffffffffffffffffffff1673ffffffffffffffffffffffffffffffffffffffff16815260200180602001848152602001838152602001828103825285818151815260200191508051906020019080838360005b838110156104f95780820151818401526020810190506104de565b50505050905090810190601f1680156105265780820380516001836020036101000a031916815260200191505b5096505050505050506040516020818303038152906040528051906020012081600001818152505080600080836020015181526020019081526020016000206000820151816000015560208201518160010155604082015181600201908051906020019061059592919061068e565b5060608201518160030160006101000a81548173ffffffffffffffffffffffffffffffffffffffff021916908373ffffffffffffffffffffffffffffffffffffffff1602179055509050506001600081548092919060010191905055503373ffffffffffffffffffffffffffffffffffffffff1681602001517f039b0e05492ac45cd6850c77ca63b8da1fb4c094e81cddc9b69b56c0541b86cf83600001516040518082815260200191505060405180910390a35050565b6040518060800160405280600080191681526020016000815260200160608152602001600073ffffffffffffffffffffffffffffffffffffffff1681525090565b828054600181600116156101000203166002900490600052602060002090601f016020900481019282601f106106cf57805160ff19168380011785556106fd565b828001600101855582156106fd579182015b828111156106fc5782518255916020019190600101906106e1565b5b50905061070a919061070e565b5090565b61073091905b8082111561072c576000816000905550600101610714565b5090565b9056fea265627a7a72315820a840888a052886c839f866a3ba37331c0d7475453ccbe8e25544f1a6fc6e998064736f6c63430005100032",
  "source": "pragma solidity ^0.5.16;\r\n\r\n// REI BALLA\r\n// rballa18@epoka.edu.al\r\n\r\ncontract Docify {\r\n    // STRUCTS\r\n    // struct Multihash {\r\n    //     bytes32 digest;\r\n    //     uint8 hashFunction;\r\n    //     uint8 size;\r\n    // }\r\n\r\n    // struct Record {\r\n    //     bytes32 hashVerify;\r\n    //     uint256 id;\r\n    //     Multihash CID;\r\n    //     address owner;\r\n    // }\r\n    struct Record {\r\n        bytes32 hashVerify;\r\n        uint256 id;\r\n        string CID;\r\n        address owner;\r\n    }\r\n    // END STRUCT\r\n\r\n    // VARS\r\n    mapping(uint256 => Record) records;\r\n    uint256 nextID = 0;\r\n    // END VARS\r\n\r\n    // EVENTS\r\n    event RecordEvent(\r\n        uint256 indexed id,\r\n        address indexed owner,\r\n        bytes32 hashVerify\r\n    );\r\n    event RecordAddedSigner(\r\n        uint256 indexed id,\r\n        address indexed signer,\r\n        bytes32 hashVerify\r\n    );\r\n    // END EVENTS\r\n\r\n    // MODIFIERS\r\n    modifier validAddress(address _addr) {\r\n        require(_addr != address(0), \"Not valid address\");\r\n        _;\r\n    }\r\n\r\n    // END MODIFIERS\r\n\r\n    // FUNCTIONS\r\n    function issue(string memory _CID) public {\r\n        Record memory rec;\r\n        // Multihash memory ipfs;\r\n\r\n        // ipfs.digest = _digest;\r\n        // ipfs.hashFunction = _hashFunction;\r\n        // ipfs.size = _size;\r\n\r\n        rec.CID = _CID;\r\n        rec.owner = msg.sender;\r\n        rec.id = nextID;\r\n        rec.hashVerify = keccak256(\r\n            abi.encode(\r\n                address(this),\r\n                msg.sender,\r\n                rec.CID,\r\n                rec.id,\r\n                block.timestamp\r\n            )\r\n        );\r\n\r\n        records[rec.id] = rec;\r\n        nextID++;\r\n\r\n        emit RecordEvent(rec.id, msg.sender, rec.hashVerify);\r\n    }\r\n\r\n    function addSigner(uint256 _recordID, address _signer)\r\n        public\r\n        validAddress(_signer)\r\n    {\r\n        Record memory rec;\r\n        rec = records[_recordID];\r\n\r\n        rec.hashVerify = keccak256(\r\n            abi.encode(rec.hashVerify, _signer, block.timestamp)\r\n        );\r\n\r\n        emit RecordAddedSigner(_recordID, _signer, rec.hashVerify);\r\n    }\r\n    // END FUNCTIONS\r\n}\r\n",
  "sourcePath": "D:/Code/BachelorThesis/RecordVerificationV1/src/contracts/Docify.sol",
  "compiler": {
    "name": "solc",
    "version": "0.5.16+commit.9c3226ce.Emscripten.clang"
  },
  "schemaVersion": "3.4.1",
  "updatedAt": "2021-07-05T10:30:11.128Z",
  "networkType": "ethereum",
  "devdoc": {
    "methods": {}
  },
  "userdoc": {
    "methods": {}
  }
}