{
  "contractName": "Docify",
  "abi": [
    {
      "anonymous": false,
      "inputs": [
        {
          "indexed": true,
          "internalType": "uint256",
          "name": "id",
          "type": "uint256"
        },
        {
          "indexed": true,
          "internalType": "address",
          "name": "signer",
          "type": "address"
        },
        {
          "indexed": false,
          "internalType": "bytes32",
          "name": "hashVerify",
          "type": "bytes32"
        }
      ],
      "name": "RecordAddedSigner",
      "type": "event"
    },
    {
      "anonymous": false,
      "inputs": [
        {
          "indexed": true,
          "internalType": "uint256",
          "name": "id",
          "type": "uint256"
        },
        {
          "indexed": true,
          "internalType": "address",
          "name": "owner",
          "type": "address"
        },
        {
          "indexed": false,
          "internalType": "bytes32",
          "name": "hashVerify",
          "type": "bytes32"
        }
      ],
      "name": "RecordEvent",
      "type": "event"
    },
    {
      "constant": false,
      "inputs": [
        {
          "internalType": "bytes32",
          "name": "_digest",
          "type": "bytes32"
        },
        {
          "internalType": "uint8",
          "name": "_hashFunction",
          "type": "uint8"
        },
        {
          "internalType": "uint8",
          "name": "_size",
          "type": "uint8"
        }
      ],
      "name": "issue",
      "outputs": [],
      "payable": false,
      "stateMutability": "nonpayable",
      "type": "function"
    },
    {
      "constant": false,
      "inputs": [
        {
          "internalType": "uint256",
          "name": "_recordID",
          "type": "uint256"
        },
        {
          "internalType": "address",
          "name": "_signer",
          "type": "address"
        }
      ],
      "name": "addSigner",
      "outputs": [],
      "payable": false,
      "stateMutability": "nonpayable",
      "type": "function"
    }
  ],
  "bytecode": "0x6080604052600060015534801561001557600080fd5b50610662806100256000396000f3fe608060405234801561001057600080fd5b50600436106100365760003560e01c806315a098251461003b578063e6ef6f3214610089575b600080fd5b6100876004803603604081101561005157600080fd5b8101908080359060200190929190803573ffffffffffffffffffffffffffffffffffffffff1690602001909291905050506100d1565b005b6100cf6004803603606081101561009f57600080fd5b8101908080359060200190929190803560ff169060200190929190803560ff169060200190929190505050610327565b005b80600073ffffffffffffffffffffffffffffffffffffffff168173ffffffffffffffffffffffffffffffffffffffff161415610175576040517f08c379a00000000000000000000000000000000000000000000000000000000081526004018080602001828103825260118152602001807f4e6f742076616c6964206164647265737300000000000000000000000000000081525060200191505060405180910390fd5b61017d610592565b600080858152602001908152602001600020604051806080016040529081600082015481526020016001820154815260200160028201604051806060016040529081600082015481526020016001820160009054906101000a900460ff1660ff1660ff1681526020016001820160019054906101000a900460ff1660ff1660ff168152505081526020016004820160009054906101000a900473ffffffffffffffffffffffffffffffffffffffff1673ffffffffffffffffffffffffffffffffffffffff1673ffffffffffffffffffffffffffffffffffffffff1681525050905080600001518342604051602001808481526020018373ffffffffffffffffffffffffffffffffffffffff1673ffffffffffffffffffffffffffffffffffffffff1681526020018281526020019350505050604051602081830303815290604052805190602001208160000181815250508273ffffffffffffffffffffffffffffffffffffffff16847f27c6e224d100e298e21618da4167715210e64c69f152403f472c893dd88575be83600001516040518082815260200191505060405180910390a350505050565b61032f610592565b6103376105d9565b8481600001818152505083816020019060ff16908160ff168152505082816040019060ff16908160ff168152505080826040018190525033826060019073ffffffffffffffffffffffffffffffffffffffff16908173ffffffffffffffffffffffffffffffffffffffff16815250506001548260200181815250503033836020015142604051602001808573ffffffffffffffffffffffffffffffffffffffff1673ffffffffffffffffffffffffffffffffffffffff1681526020018473ffffffffffffffffffffffffffffffffffffffff1673ffffffffffffffffffffffffffffffffffffffff16815260200183815260200182815260200194505050505060405160208183030381529060405280519060200120826000018181525050816000808460200151815260200190815260200160002060008201518160000155602082015181600101556040820151816002016000820151816000015560208201518160010160006101000a81548160ff021916908360ff16021790555060408201518160010160016101000a81548160ff021916908360ff160217905550505060608201518160040160006101000a81548173ffffffffffffffffffffffffffffffffffffffff021916908373ffffffffffffffffffffffffffffffffffffffff1602179055509050506001600081548092919060010191905055503373ffffffffffffffffffffffffffffffffffffffff1682602001517f039b0e05492ac45cd6850c77ca63b8da1fb4c094e81cddc9b69b56c0541b86cf84600001516040518082815260200191505060405180910390a35050505050565b604051806080016040528060008019168152602001600081526020016105b6610603565b8152602001600073ffffffffffffffffffffffffffffffffffffffff1681525090565b604051806060016040528060008019168152602001600060ff168152602001600060ff1681525090565b604051806060016040528060008019168152602001600060ff168152602001600060ff168152509056fea265627a7a72315820834bc535e90bf2a0d59f5b6c5de966c20993f712af218aa2f1086eca759ebe8364736f6c63430005100032",
  "source": "pragma solidity ^0.5.16;\r\n\r\n// REI BALLA\r\n// rballa18@epoka.edu.al\r\n\r\ncontract Docify {\r\n    // STRUCTS\r\n    struct Multihash {\r\n        bytes32 digest;\r\n        uint8 hashFunction;\r\n        uint8 size;\r\n    }\r\n\r\n    struct Record {\r\n        bytes32 hashVerify;\r\n        uint256 id;\r\n        Multihash CID;\r\n        address owner;\r\n    }\r\n    // END STRUCT\r\n\r\n    // VARS\r\n    mapping(uint256 => Record) records;\r\n    uint256 nextID = 0;\r\n    // END VARS\r\n\r\n    // EVENTS\r\n    event RecordEvent(\r\n        uint256 indexed id,\r\n        address indexed owner,\r\n        bytes32 hashVerify\r\n    );\r\n    event RecordAddedSigner(\r\n        uint256 indexed id,\r\n        address indexed signer,\r\n        bytes32 hashVerify\r\n    );\r\n    // END EVENTS\r\n\r\n    // MODIFIERS\r\n    modifier validAddress(address _addr) {\r\n        require(_addr != address(0), \"Not valid address\");\r\n        _;\r\n    }\r\n\r\n    // END MODIFIERS\r\n\r\n    // FUNCTIONS\r\n    function issue(\r\n        bytes32 _digest,\r\n        uint8 _hashFunction,\r\n        uint8 _size\r\n    ) public {\r\n        Record memory rec;\r\n        Multihash memory ipfs;\r\n\r\n        ipfs.digest = _digest;\r\n        ipfs.hashFunction = _hashFunction;\r\n        ipfs.size = _size;\r\n\r\n        rec.CID = ipfs;\r\n        rec.owner = msg.sender;\r\n        rec.id = nextID;\r\n        rec.hashVerify = keccak256(\r\n            abi.encode(address(this), msg.sender, rec.id, block.timestamp)\r\n        );\r\n\r\n        records[rec.id] = rec;\r\n        nextID++;\r\n\r\n        emit RecordEvent(rec.id, msg.sender, rec.hashVerify);\r\n    }\r\n\r\n    function addSigner(uint256 _recordID, address _signer)\r\n        public\r\n        validAddress(_signer)\r\n    {\r\n        Record memory rec;\r\n        rec = records[_recordID];\r\n\r\n        rec.hashVerify = keccak256(\r\n            abi.encode(rec.hashVerify, _signer, block.timestamp)\r\n        );\r\n\r\n        emit RecordAddedSigner(_recordID, _signer, rec.hashVerify);\r\n    }\r\n    // END FUNCTIONS\r\n}\r\n",
  "sourcePath": "D:/Code/BachelorThesis/RecordVerificationV1/src/contracts/Docify.sol",
  "compiler": {
    "name": "solc",
    "version": "0.5.16+commit.9c3226ce.Emscripten.clang"
  },
  "schemaVersion": "3.4.1",
  "updatedAt": "2021-06-01T19:32:12.140Z",
  "devdoc": {
    "methods": {}
  },
  "userdoc": {
    "methods": {}
  }
}